{
  "contractName": "ERC20Poof",
  "abi": [
    {
      "inputs": [
        {
          "internalType": "contract IVerifier",
          "name": "_verifier",
          "type": "address"
        },
        {
          "internalType": "contract IFeeManager",
          "name": "_feeManager",
          "type": "address"
        },
        {
          "internalType": "uint256",
          "name": "_denomination",
          "type": "uint256"
        },
        {
          "internalType": "uint32",
          "name": "_merkleTreeHeight",
          "type": "uint32"
        },
        {
          "internalType": "address",
          "name": "_owner",
          "type": "address"
        },
        {
          "internalType": "address",
          "name": "_token",
          "type": "address"
        },
        {
          "internalType": "address",
          "name": "_governance",
          "type": "address"
        }
      ],
      "payable": false,
      "stateMutability": "nonpayable",
      "type": "constructor"
    },
    {
      "anonymous": false,
      "inputs": [
        {
          "indexed": true,
          "internalType": "bytes32",
          "name": "commitment",
          "type": "bytes32"
        },
        {
          "indexed": false,
          "internalType": "uint32",
          "name": "leafIndex",
          "type": "uint32"
        },
        {
          "indexed": false,
          "internalType": "uint256",
          "name": "timestamp",
          "type": "uint256"
        }
      ],
      "name": "Deposit",
      "type": "event"
    },
    {
      "anonymous": false,
      "inputs": [
        {
          "indexed": true,
          "internalType": "address",
          "name": "sender",
          "type": "address"
        },
        {
          "indexed": false,
          "internalType": "bytes",
          "name": "encryptedNote",
          "type": "bytes"
        }
      ],
      "name": "EncryptedNote",
      "type": "event"
    },
    {
      "anonymous": false,
      "inputs": [
        {
          "indexed": true,
          "internalType": "address",
          "name": "previousOwner",
          "type": "address"
        },
        {
          "indexed": true,
          "internalType": "address",
          "name": "newOwner",
          "type": "address"
        }
      ],
      "name": "OwnershipTransferred",
      "type": "event"
    },
    {
      "anonymous": false,
      "inputs": [
        {
          "indexed": true,
          "internalType": "address",
          "name": "previousVerifier",
          "type": "address"
        },
        {
          "indexed": true,
          "internalType": "address",
          "name": "newVerifier",
          "type": "address"
        }
      ],
      "name": "VerifierChanged",
      "type": "event"
    },
    {
      "anonymous": false,
      "inputs": [
        {
          "indexed": false,
          "internalType": "address",
          "name": "to",
          "type": "address"
        },
        {
          "indexed": false,
          "internalType": "bytes32",
          "name": "nullifierHash",
          "type": "bytes32"
        },
        {
          "indexed": true,
          "internalType": "address",
          "name": "relayer",
          "type": "address"
        },
        {
          "indexed": false,
          "internalType": "uint256",
          "name": "fee",
          "type": "uint256"
        }
      ],
      "name": "Withdrawal",
      "type": "event"
    },
    {
      "constant": true,
      "inputs": [],
      "name": "FIELD_SIZE",
      "outputs": [
        {
          "internalType": "uint256",
          "name": "",
          "type": "uint256"
        }
      ],
      "payable": false,
      "stateMutability": "view",
      "type": "function"
    },
    {
      "constant": true,
      "inputs": [],
      "name": "ROOT_HISTORY_SIZE",
      "outputs": [
        {
          "internalType": "uint32",
          "name": "",
          "type": "uint32"
        }
      ],
      "payable": false,
      "stateMutability": "view",
      "type": "function"
    },
    {
      "constant": true,
      "inputs": [],
      "name": "ZERO_VALUE",
      "outputs": [
        {
          "internalType": "uint256",
          "name": "",
          "type": "uint256"
        }
      ],
      "payable": false,
      "stateMutability": "view",
      "type": "function"
    },
    {
      "constant": false,
      "inputs": [
        {
          "internalType": "address",
          "name": "_newOwner",
          "type": "address"
        }
      ],
      "name": "changeOwner",
      "outputs": [],
      "payable": false,
      "stateMutability": "nonpayable",
      "type": "function"
    },
    {
      "constant": true,
      "inputs": [
        {
          "internalType": "bytes32",
          "name": "",
          "type": "bytes32"
        }
      ],
      "name": "commitments",
      "outputs": [
        {
          "internalType": "bool",
          "name": "",
          "type": "bool"
        }
      ],
      "payable": false,
      "stateMutability": "view",
      "type": "function"
    },
    {
      "constant": true,
      "inputs": [],
      "name": "currentRootIndex",
      "outputs": [
        {
          "internalType": "uint32",
          "name": "",
          "type": "uint32"
        }
      ],
      "payable": false,
      "stateMutability": "view",
      "type": "function"
    },
    {
      "constant": true,
      "inputs": [],
      "name": "denomination",
      "outputs": [
        {
          "internalType": "uint256",
          "name": "",
          "type": "uint256"
        }
      ],
      "payable": false,
      "stateMutability": "view",
      "type": "function"
    },
    {
      "constant": false,
      "inputs": [
        {
          "internalType": "bytes32",
          "name": "_commitment",
          "type": "bytes32"
        },
        {
          "internalType": "bytes",
          "name": "_encryptedNote",
          "type": "bytes"
        }
      ],
      "name": "deposit",
      "outputs": [],
      "payable": true,
      "stateMutability": "payable",
      "type": "function"
    },
    {
      "constant": true,
      "inputs": [],
      "name": "feeManager",
      "outputs": [
        {
          "internalType": "contract IFeeManager",
          "name": "",
          "type": "address"
        }
      ],
      "payable": false,
      "stateMutability": "view",
      "type": "function"
    },
    {
      "constant": true,
      "inputs": [
        {
          "internalType": "uint256",
          "name": "",
          "type": "uint256"
        }
      ],
      "name": "filledSubtrees",
      "outputs": [
        {
          "internalType": "bytes32",
          "name": "",
          "type": "bytes32"
        }
      ],
      "payable": false,
      "stateMutability": "view",
      "type": "function"
    },
    {
      "constant": true,
      "inputs": [],
      "name": "getLastRoot",
      "outputs": [
        {
          "internalType": "bytes32",
          "name": "",
          "type": "bytes32"
        }
      ],
      "payable": false,
      "stateMutability": "view",
      "type": "function"
    },
    {
      "constant": true,
      "inputs": [],
      "name": "governance",
      "outputs": [
        {
          "internalType": "address",
          "name": "",
          "type": "address"
        }
      ],
      "payable": false,
      "stateMutability": "view",
      "type": "function"
    },
    {
      "constant": true,
      "inputs": [
        {
          "internalType": "bytes32",
          "name": "_left",
          "type": "bytes32"
        },
        {
          "internalType": "bytes32",
          "name": "_right",
          "type": "bytes32"
        }
      ],
      "name": "hashLeftRight",
      "outputs": [
        {
          "internalType": "bytes32",
          "name": "",
          "type": "bytes32"
        }
      ],
      "payable": false,
      "stateMutability": "pure",
      "type": "function"
    },
    {
      "constant": true,
      "inputs": [
        {
          "internalType": "bytes32",
          "name": "_root",
          "type": "bytes32"
        }
      ],
      "name": "isKnownRoot",
      "outputs": [
        {
          "internalType": "bool",
          "name": "",
          "type": "bool"
        }
      ],
      "payable": false,
      "stateMutability": "view",
      "type": "function"
    },
    {
      "constant": true,
      "inputs": [
        {
          "internalType": "bytes32",
          "name": "_nullifierHash",
          "type": "bytes32"
        }
      ],
      "name": "isSpent",
      "outputs": [
        {
          "internalType": "bool",
          "name": "",
          "type": "bool"
        }
      ],
      "payable": false,
      "stateMutability": "view",
      "type": "function"
    },
    {
      "constant": true,
      "inputs": [
        {
          "internalType": "bytes32[]",
          "name": "_nullifierHashes",
          "type": "bytes32[]"
        }
      ],
      "name": "isSpentArray",
      "outputs": [
        {
          "internalType": "bool[]",
          "name": "spent",
          "type": "bool[]"
        }
      ],
      "payable": false,
      "stateMutability": "view",
      "type": "function"
    },
    {
      "constant": true,
      "inputs": [],
      "name": "levels",
      "outputs": [
        {
          "internalType": "uint32",
          "name": "",
          "type": "uint32"
        }
      ],
      "payable": false,
      "stateMutability": "view",
      "type": "function"
    },
    {
      "constant": true,
      "inputs": [],
      "name": "nextIndex",
      "outputs": [
        {
          "internalType": "uint32",
          "name": "",
          "type": "uint32"
        }
      ],
      "payable": false,
      "stateMutability": "view",
      "type": "function"
    },
    {
      "constant": true,
      "inputs": [
        {
          "internalType": "bytes32",
          "name": "",
          "type": "bytes32"
        }
      ],
      "name": "nullifierHashes",
      "outputs": [
        {
          "internalType": "bool",
          "name": "",
          "type": "bool"
        }
      ],
      "payable": false,
      "stateMutability": "view",
      "type": "function"
    },
    {
      "constant": true,
      "inputs": [],
      "name": "owner",
      "outputs": [
        {
          "internalType": "address",
          "name": "",
          "type": "address"
        }
      ],
      "payable": false,
      "stateMutability": "view",
      "type": "function"
    },
    {
      "constant": true,
      "inputs": [
        {
          "internalType": "uint256",
          "name": "",
          "type": "uint256"
        }
      ],
      "name": "roots",
      "outputs": [
        {
          "internalType": "bytes32",
          "name": "",
          "type": "bytes32"
        }
      ],
      "payable": false,
      "stateMutability": "view",
      "type": "function"
    },
    {
      "constant": true,
      "inputs": [],
      "name": "token",
      "outputs": [
        {
          "internalType": "address",
          "name": "",
          "type": "address"
        }
      ],
      "payable": false,
      "stateMutability": "view",
      "type": "function"
    },
    {
      "constant": false,
      "inputs": [
        {
          "internalType": "address",
          "name": "_newVerifier",
          "type": "address"
        }
      ],
      "name": "updateVerifier",
      "outputs": [],
      "payable": false,
      "stateMutability": "nonpayable",
      "type": "function"
    },
    {
      "constant": true,
      "inputs": [],
      "name": "verifier",
      "outputs": [
        {
          "internalType": "contract IVerifier",
          "name": "",
          "type": "address"
        }
      ],
      "payable": false,
      "stateMutability": "view",
      "type": "function"
    },
    {
      "constant": false,
      "inputs": [
        {
          "internalType": "bytes",
          "name": "_proof",
          "type": "bytes"
        },
        {
          "internalType": "bytes32",
          "name": "_root",
          "type": "bytes32"
        },
        {
          "internalType": "bytes32",
          "name": "_nullifierHash",
          "type": "bytes32"
        },
        {
          "internalType": "address payable",
          "name": "_recipient",
          "type": "address"
        },
        {
          "internalType": "address payable",
          "name": "_relayer",
          "type": "address"
        },
        {
          "internalType": "uint256",
          "name": "_fee",
          "type": "uint256"
        },
        {
          "internalType": "uint256",
          "name": "_refund",
          "type": "uint256"
        }
      ],
      "name": "withdraw",
      "outputs": [],
      "payable": true,
      "stateMutability": "payable",
      "type": "function"
    },
    {
      "constant": true,
      "inputs": [
        {
          "internalType": "uint256",
          "name": "",
          "type": "uint256"
        }
      ],
      "name": "zeros",
      "outputs": [
        {
          "internalType": "bytes32",
          "name": "",
          "type": "bytes32"
        }
      ],
      "payable": false,
      "stateMutability": "view",
      "type": "function"
    },
    {
      "constant": false,
      "inputs": [
        {
          "internalType": "contract IERC20",
          "name": "_token",
          "type": "address"
        }
      ],
      "name": "governanceClaim",
      "outputs": [],
      "payable": false,
      "stateMutability": "nonpayable",
      "type": "function"
    }
  ],
  "bytecode": "0x6080604052600380546001600160401b03191690553480156200002157600080fd5b50604051620025f5380380620025f5833981810160405260e08110156200004757600080fd5b508051602082015160408301516060840151608085015160a086015160c090960151949593949293919290919086868686868685858585858163ffffffff8116620000c45760405162461bcd60e51b81526004018080602001828103825260278152602001806200256c6027913960400191505060405180910390fd5b60208163ffffffff16106200010b5760405162461bcd60e51b8152600401808060200182810382526022815260200180620025b36022913960400191505060405180910390fd5b6000805463ffffffff191663ffffffff83161781556002805460018181019092557f2fe54c60d3acabf3343a35b6eba15db4821b340f76e741e2249685ed4899af6c6000805160206200252b8339815191529091018190558154808301835592829052600080516020620025d58339815191529092018290555b60005463ffffffff9081169082161015620001f957620001af82806001600160e01b03620002d616565b6002805460018181019092556000805160206200252b83398151915201829055805480820182556000829052600080516020620025d5833981519152018290559092500162000185565b506200020f81806001600160e01b03620002d616565b60046000015550506068805460ff1916600117905582620002625760405162461bcd60e51b8152600401808060200182810382526025815260200180620025066025913960400191505060405180910390fd5b606c80546001600160a01b03199081166001600160a01b0397881617909155606d8054821695871695909517909455606e8054851691861691909117905550606955606f80548216938316939093179092556070805490921697169690961790955550620004c39950505050505050505050565b60006000805160206200259383398151915283106200033c576040805162461bcd60e51b815260206004820181905260248201527f5f6c6566742073686f756c6420626520696e7369646520746865206669656c64604482015290519081900360640190fd5b6000805160206200259383398151915282106200038b5760405162461bcd60e51b81526004018080602001828103825260218152602001806200254b6021913960400191505060405180910390fd5b6040805163f47d33b560e01b81526004810185905260006024820181905282518693919273__Hasher________________________________9263f47d33b592604480840193829003018186803b158015620003e657600080fd5b505af4158015620003fb573d6000803e3d6000fd5b505050506040513d60408110156200041257600080fd5b508051602090910151909250905060008051602062002593833981519152848308915073__Hasher________________________________63f47d33b583836040518363ffffffff1660e01b81526004018083815260200182815260200192505050604080518083038186803b1580156200048c57600080fd5b505af4158015620004a1573d6000803e3d6000fd5b505050506040513d6040811015620004b857600080fd5b505195945050505050565b61203380620004d36000396000f3fe60806040526004361061019c5760003560e01c806397fc007c116100ec578063e29973fc1161008a578063ec73295911610064578063ec7329591461066e578063f178e47c14610683578063fc0c546a146106ad578063fc7e9c6f146106c25761019c565b8063e29973fc146105a5578063e5285dcc1461061a578063e8295588146106445761019c565b8063ba70f757116100c6578063ba70f7571461053c578063c2b40ae414610551578063cd87a3b41461057b578063d0fb0203146105905761019c565b806397fc007c1461040b5780639fa12d0b1461043e578063a6f9dae1146105095761019c565b8063560cdfbd11610159578063839df94511610133578063839df945146103a25780638bca6d16146103cc5780638da5cb5b146103e157806390eeb02b146103f65761019c565b8063560cdfbd146103305780635aa6e675146103635780636d9833e3146103785761019c565b806317cc915c146101a157806321a0adb6146101df5780632b7ac3f31461027a57806338bf282e146102ab578063414a37ba146102ed5780634ecf518b14610302575b600080fd5b3480156101ad57600080fd5b506101cb600480360360208110156101c457600080fd5b50356106d7565b604080519115158252519081900360200190f35b610278600480360360e08110156101f557600080fd5b810190602081018135600160201b81111561020f57600080fd5b82018360208201111561022157600080fd5b803590602001918460018302840111600160201b8311171561024257600080fd5b91935091508035906020810135906001600160a01b03604082013581169160608101359091169060808101359060a001356106ec565b005b34801561028657600080fd5b5061028f610a39565b604080516001600160a01b039092168252519081900360200190f35b3480156102b757600080fd5b506102db600480360360408110156102ce57600080fd5b5080359060200135610a48565b60408051918252519081900360200190f35b3480156102f957600080fd5b506102db610c29565b34801561030e57600080fd5b50610317610c3b565b6040805163ffffffff9092168252519081900360200190f35b34801561033c57600080fd5b506102786004803603602081101561035357600080fd5b50356001600160a01b0316610c47565b34801561036f57600080fd5b5061028f610d2e565b34801561038457600080fd5b506101cb6004803603602081101561039b57600080fd5b5035610d3d565b3480156103ae57600080fd5b506101cb600480360360208110156103c557600080fd5b5035610db0565b3480156103d857600080fd5b506102db610dc5565b3480156103ed57600080fd5b5061028f610dcb565b34801561040257600080fd5b50610317610dda565b34801561041757600080fd5b506102786004803603602081101561042e57600080fd5b50356001600160a01b0316610de6565b34801561044a57600080fd5b506104b96004803603602081101561046157600080fd5b810190602081018135600160201b81111561047b57600080fd5b82018360208201111561048d57600080fd5b803590602001918460208302840111600160201b831117156104ae57600080fd5b509092509050610e8b565b60408051602080825283518183015283519192839290830191858101910280838360005b838110156104f55781810151838201526020016104dd565b505050509050019250505060405180910390f35b34801561051557600080fd5b506102786004803603602081101561052c57600080fd5b50356001600160a01b0316610f13565b34801561054857600080fd5b506102db610fb8565b34801561055d57600080fd5b506102db6004803603602081101561057457600080fd5b5035610fd8565b34801561058757600080fd5b50610317610fec565b34801561059c57600080fd5b5061028f610ff1565b610278600480360360408110156105bb57600080fd5b81359190810190604081016020820135600160201b8111156105dc57600080fd5b8201836020820111156105ee57600080fd5b803590602001918460018302840111600160201b8311171561060f57600080fd5b509092509050611000565b34801561062657600080fd5b506101cb6004803603602081101561063d57600080fd5b5035611199565b34801561065057600080fd5b506102db6004803603602081101561066757600080fd5b50356111ae565b34801561067a57600080fd5b506102db6111cc565b34801561068f57600080fd5b506102db600480360360208110156106a657600080fd5b50356111f0565b3480156106b957600080fd5b5061028f6111fd565b3480156106ce57600080fd5b5061031761120c565b606a6020526000908152604090205460ff1681565b60685460ff16610743576040805162461bcd60e51b815260206004820152601f60248201527f5265656e7472616e637947756172643a207265656e7472616e742063616c6c00604482015290519081900360640190fd5b6068805460ff191690556069548211156107a4576040805162461bcd60e51b815260206004820152601a60248201527f4665652065786365656473207472616e736665722076616c7565000000000000604482015290519081900360640190fd5b6000858152606a602052604090205460ff1615610808576040805162461bcd60e51b815260206004820152601f60248201527f546865206e6f746520686173206265656e20616c7265616479207370656e7400604482015290519081900360640190fd5b61081186610d3d565b610862576040805162461bcd60e51b815260206004820152601c60248201527f43616e6e6f742066696e6420796f7572206d65726b6c6520726f6f7400000000604482015290519081900360640190fd5b606c546040805160c08082018352898252602082018990526001600160a01b038881168385015287811660608401526080830187905260a08301869052925163695ef6f960e01b8152929093169263695ef6f9928c928c9290916004810191829160240190849080838360005b838110156108e75781810151838201526020016108cf565b505050509050018281038252858582818152602001925080828437600081840152601f19601f820116905080830192505050945050505050602060405180830381600087803b15801561093957600080fd5b505af115801561094d573d6000803e3d6000fd5b505050506040513d602081101561096357600080fd5b50516109af576040805162461bcd60e51b815260206004820152601660248201527524b73b30b634b2103bb4ba34323930bb90383937b7b360511b604482015290519081900360640190fd5b6000858152606a60205260409020805460ff191660011790556109d48484848461121f565b604080516001600160a01b038681168252602082018890528183018590529151918516917fe9e508bad6d4c3227e881ca19068f099da81b5164dd6d62b2eaf1e8bc6c349319181900360600190a250506068805460ff19166001179055505050505050565b606c546001600160a01b031681565b6000600080516020611f648339815191528310610aac576040805162461bcd60e51b815260206004820181905260248201527f5f6c6566742073686f756c6420626520696e7369646520746865206669656c64604482015290519081900360640190fd5b600080516020611f648339815191528210610af85760405162461bcd60e51b8152600401808060200182810382526021815260200180611f146021913960400191505060405180910390fd5b6040805163f47d33b560e01b81526004810185905260006024820181905282518693919273__Hasher________________________________9263f47d33b592604480840193829003018186803b158015610b5257600080fd5b505af4158015610b66573d6000803e3d6000fd5b505050506040513d6040811015610b7c57600080fd5b5080516020909101519092509050600080516020611f64833981519152848308915073__Hasher________________________________63f47d33b583836040518363ffffffff1660e01b81526004018083815260200182815260200192505050604080518083038186803b158015610bf457600080fd5b505af4158015610c08573d6000803e3d6000fd5b505050506040513d6040811015610c1e57600080fd5b505195945050505050565b600080516020611f6483398151915281565b60005463ffffffff1681565b604080516370a0823160e01b815230600482015290516000916001600160a01b038416916370a0823191602480820192602092909190829003018186803b158015610c9157600080fd5b505afa158015610ca5573d6000803e3d6000fd5b505050506040513d6020811015610cbb57600080fd5b5051905080610d0a576040805162461bcd60e51b815260206004820152601660248201527510d85b89dd0818db185a5b4818480c08185b5bdd5b9d60521b604482015290519081900360640190fd5b607054610d2a906001600160a01b0384811691168363ffffffff61123116565b5050565b6070546001600160a01b031681565b600081610d4c57506000610dab565b60035463ffffffff165b60048163ffffffff1660648110610d6957fe5b0154831415610d7c576001915050610dab565b63ffffffff8116610d8b575060645b6003546000199091019063ffffffff80831691161415610d565760009150505b919050565b606b6020526000908152604090205460ff1681565b60695481565b606e546001600160a01b031681565b60035463ffffffff1681565b606e546001600160a01b03163314610e2f5760405162461bcd60e51b8152600401808060200182810382526022815260200180611e426022913960400191505060405180910390fd5b606c546040516001600160a01b038084169216907f0ddda8be1021ab00f63727c5c5504ad96b163269770a3fe8ac3dd0bcb40208df90600090a3606c80546001600160a01b0319166001600160a01b0392909216919091179055565b604080518281526020808402820101909152606090828015610eb7578160200160208202803883390190505b50905060005b82811015610f0c57610ee0848483818110610ed457fe5b90506020020135611199565b15610f04576001828281518110610ef357fe5b911515602092830291909101909101525b600101610ebd565b5092915050565b606e546001600160a01b03163314610f5c5760405162461bcd60e51b8152600401808060200182810382526022815260200180611e426022913960400191505060405180910390fd5b606e546040516001600160a01b038084169216907f8be0079c531659141344cd1fd0a4f28419497f9722a3daafe3b4186f6b6457e090600090a3606e80546001600160a01b0319166001600160a01b0392909216919091179055565b60035460009060049063ffffffff1660648110610fd157fe5b0154905090565b60048160648110610fe557fe5b0154905081565b606481565b606d546001600160a01b031681565b60685460ff16611057576040805162461bcd60e51b815260206004820152601f60248201527f5265656e7472616e637947756172643a207265656e7472616e742063616c6c00604482015290519081900360640190fd5b6068805460ff191690556000838152606b602052604090205460ff16156110af5760405162461bcd60e51b8152600401808060200182810382526021815260200180611f846021913960400191505060405180910390fd5b60006110ba84611288565b6000858152606b60205260409020805460ff1916600117905590506110dd61141f565b6040805163ffffffff83168152426020820152815186927fa945e51eec50ab98c161376f0db4cf2aeba3ec92755fe2fcd388bdbbb80ff196928290030190a2336001600160a01b03167ffa28df43db3553771f7209dcef046f3bdfea15870ab625dcda30ac58b82b4008848460405180806020018281038252848482818152602001925080828437600083820152604051601f909101601f19169092018290039550909350505050a250506068805460ff191660011790555050565b6000908152606a602052604090205460ff1690565b600281815481106111bb57fe5b600091825260209091200154905081565b7f2fe54c60d3acabf3343a35b6eba15db4821b340f76e741e2249685ed4899af6c81565b600181815481106111bb57fe5b606f546001600160a01b031681565b600354600160201b900463ffffffff1681565b61122b84848484611429565b50505050565b604080516001600160a01b038416602482015260448082018490528251808303909101815260649091019091526020810180516001600160e01b031663a9059cbb60e01b179052611283908490611671565b505050565b60035460008054909163ffffffff600160201b909104811691811660020a168114156112e55760405162461bcd60e51b815260040180806020018281038252602f815260200180611e64602f913960400191505060405180910390fd5b6003805463ffffffff600160201b80830482166001019091160267ffffffff000000001990911617905582600080805b60005463ffffffff90811690821610156113bd57600185166113795783925060028163ffffffff168154811061134757fe5b906000526020600020015491508360018263ffffffff168154811061136857fe5b60009182526020909120015561139d565b60018163ffffffff168154811061138c57fe5b906000526020600020015492508391505b6113a78383610a48565b9350600263ffffffff8616049450600101611315565b5060035460649063ffffffff908116600101166003805463ffffffff19169290910663ffffffff9081169290921790819055849160049116606481106113ff57fe5b01555050600354600160201b900463ffffffff1660001901949350505050565b611427611829565b565b8034146114675760405162461bcd60e51b8152600401808060200182810382526030815260200180611ebd6030913960400191505060405180910390fd5b606d5460408051622fcfcb60e31b815290516000926001600160a01b03169163017e7e58916004808301926020929190829003018186803b1580156114ab57600080fd5b505afa1580156114bf573d6000803e3d6000fd5b505050506040513d60208110156114d557600080fd5b5051606d5460408051633b46a6e760e01b815290519293506000926001600160a01b0390921691633b46a6e791600480820192602092909190829003018186803b15801561152257600080fd5b505afa158015611536573d6000803e3d6000fd5b505050506040513d602081101561154c57600080fd5b5051905060006001600160a01b0383161580159061156957508115155b905080156115af57600061157f60695484611873565b905061159f8861159a6069546115958a866118bc565b611916565b611958565b6115a98482611958565b506115bf565b6115bf8761159a60695488611916565b84156115cf576115cf8686611958565b8315611668576040516000906001600160a01b0389169086908381818185875af1925050503d8060008114611620576040519150601f19603f3d011682016040523d82523d6000602084013e611625565b606091505b5050905080611666576040516001600160a01b0388169086156108fc029087906000818181858888f19350505050158015611664573d6000803e3d6000fd5b505b505b50505050505050565b611683826001600160a01b0316611b23565b6116d4576040805162461bcd60e51b815260206004820152601f60248201527f5361666545524332303a2063616c6c20746f206e6f6e2d636f6e747261637400604482015290519081900360640190fd5b60006060836001600160a01b0316836040518082805190602001908083835b602083106117125780518252601f1990920191602091820191016116f3565b6001836020036101000a0380198251168184511680821785525050505050509050019150506000604051808303816000865af19150503d8060008114611774576040519150601f19603f3d011682016040523d82523d6000602084013e611779565b606091505b5091509150816117d0576040805162461bcd60e51b815260206004820181905260248201527f5361666545524332303a206c6f772d6c6576656c2063616c6c206661696c6564604482015290519081900360640190fd5b80511561122b578080602001905160208110156117ec57600080fd5b505161122b5760405162461bcd60e51b815260040180806020018281038252602a815260200180611fd5602a913960400191505060405180910390fd5b34156118665760405162461bcd60e51b8152600401808060200182810382526030815260200180611fa56030913960400191505060405180910390fd5b6114273330606954611b5f565b60006118b583836040518060400160405280601a81526020017f536166654d6174683a206469766973696f6e206279207a65726f000000000000815250611d45565b9392505050565b6000828201838110156118b5576040805162461bcd60e51b815260206004820152601b60248201527f536166654d6174683a206164646974696f6e206f766572666c6f770000000000604482015290519081900360640190fd5b60006118b583836040518060400160405280601e81526020017f536166654d6174683a207375627472616374696f6e206f766572666c6f770000815250611de7565b606f54604080516001600160a01b038581166024830152604480830186905283518084039091018152606490920183526020820180516001600160e01b031663a9059cbb60e01b178152925182516000956060959316939282918083835b602083106119d55780518252601f1990920191602091820191016119b6565b6001836020036101000a0380198251168184511680821785525050505050509050019150506000604051808303816000865af19150503d8060008114611a37576040519150601f19603f3d011682016040523d82523d6000602084013e611a3c565b606091505b509150915081611a87576040805162461bcd60e51b81526020600482015260116024820152706e6f7420656e6f75676820746f6b656e7360781b604482015290519081900360640190fd5b80511561122b578051602014611ace5760405162461bcd60e51b815260040180806020018281038252602a815260200180611e93602a913960400191505060405180910390fd5b808060200190516020811015611ae357600080fd5b505191508161122b5760405162461bcd60e51b8152600401808060200182810382526027815260200180611eed6027913960400191505060405180910390fd5b6000813f7fc5d2460186f7233c927e7db2dcc703c0e500b653ca82273b7bfad8045d85a470818114801590611b5757508115155b949350505050565b606f54604080516001600160a01b0386811660248301528581166044830152606480830186905283518084039091018152608490920183526020820180516001600160e01b03166323b872dd60e01b178152925182516000956060959316939282918083835b60208310611be45780518252601f199092019160209182019101611bc5565b6001836020036101000a0380198251168184511680821785525050505050509050019150506000604051808303816000865af19150503d8060008114611c46576040519150601f19603f3d011682016040523d82523d6000602084013e611c4b565b606091505b509150915081611ca2576040805162461bcd60e51b815260206004820152601960248201527f6e6f7420656e6f75676820616c6c6f77656420746f6b656e7300000000000000604482015290519081900360640190fd5b805115611d3e578051602014611ce95760405162461bcd60e51b815260040180806020018281038252602a815260200180611e93602a913960400191505060405180910390fd5b808060200190516020811015611cfe57600080fd5b5051915081611d3e5760405162461bcd60e51b815260040180806020018281038252602f815260200180611f35602f913960400191505060405180910390fd5b5050505050565b60008183611dd15760405162461bcd60e51b81526004018080602001828103825283818151815260200191508051906020019080838360005b83811015611d96578181015183820152602001611d7e565b50505050905090810190601f168015611dc35780820380516001836020036101000a031916815260200191505b509250505060405180910390fd5b506000838581611ddd57fe5b0495945050505050565b60008184841115611e395760405162461bcd60e51b8152602060048201818152835160248401528351909283926044909101919085019080838360008315611d96578181015183820152602001611d7e565b50505090039056fe4f6e6c79206f776e65722063616e2063616c6c20746869732066756e6374696f6e2e4d65726b6c6520747265652069732066756c6c2e204e6f206d6f7265206c656166732063616e20626520616464656464617461206c656e6774682073686f756c64206265206569746865722030206f72203332206279746573496e636f727265637420726566756e6420616d6f756e742072656365697665642062792074686520636f6e74726163746e6f7420656e6f75676820746f6b656e732e20546f6b656e2072657475726e732066616c73652e5f72696768742073686f756c6420626520696e7369646520746865206669656c646e6f7420656e6f75676820616c6c6f77656420746f6b656e732e20546f6b656e2072657475726e732066616c73652e30644e72e131a029b85045b68181585d2833e84879b9709143e1f593f000000154686520636f6d6d69746d656e7420686173206265656e207375626d69747465644554482076616c756520697320737570706f73656420746f206265203020666f7220455243323020696e7374616e63655361666545524332303a204552433230206f7065726174696f6e20646964206e6f742073756363656564a265627a7a72315820918aae11dc5211c4baf91693473bd54db4755a8e9621f91a46364d3262b9d8ce64736f6c6343000511003264656e6f6d696e6174696f6e2073686f756c642062652067726561746572207468616e2030405787fa12a823e0f2b7631cc41b3ba8828b3321ca811111fa75cd3aa3bb5ace5f72696768742073686f756c6420626520696e7369646520746865206669656c645f747265654c6576656c732073686f756c642062652067726561746572207468616e207a65726f30644e72e131a029b85045b68181585d2833e84879b9709143e1f593f00000015f747265654c6576656c732073686f756c64206265206c657373207468616e203332b10e2d527612073b26eecdfd717e6a320cf44b4afac2b0732d9fcbe2b7fa0cf6",
  "source": "pragma solidity 0.5.17;\n\nimport \"./ERC20Tornado.sol\";\nimport \"@openzeppelin/contracts/token/ERC20/IERC20.sol\";\nimport \"@openzeppelin/contracts/token/ERC20/SafeERC20.sol\";\n\ncontract ERC20Poof is ERC20Tornado {\n  using SafeERC20 for IERC20;\n\n  address public governance;\n\n  constructor(\n    IVerifier _verifier,\n    IFeeManager _feeManager,\n    uint256 _denomination,\n    uint32 _merkleTreeHeight,\n    address _owner,\n    address _token,\n    address _governance\n  ) ERC20Tornado(_verifier, _feeManager, _denomination, _merkleTreeHeight, _owner, _token) public {\n    governance = _governance;\n  }\n\n  function _processDeposit() internal {\n    super._processDeposit();\n  }\n\n  function _processWithdraw(address payable _recipient, address payable _relayer, uint256 _relayer_fee, uint256 _refund) internal {\n    super._processWithdraw(\n      _recipient,\n      _relayer,\n      _relayer_fee,\n      _refund\n    );\n  }\n\n  // @dev Claims tokens in contract to send back to governance\n  // @param token The token address to claim\n  function governanceClaim(IERC20 _token) external {\n    uint256 balance = _token.balanceOf(address(this));\n    require(balance > 0, \"Can't claim a 0 amount\");\n    _token.safeTransfer(governance, balance);\n  }\n}\n",
  "sourcePath": "/home/home/poof-core/contracts/ERC20Poof.sol",
  "compiler": {
    "name": "solc",
    "version": "0.5.17+commit.d19bba13.Emscripten.clang"
  },
  "schemaVersion": "3.3.4",
  "updatedAt": "2021-07-14T16:33:35.939Z",
  "devdoc": {
    "methods": {
      "changeOwner(address)": {
        "details": "owner can change his address "
      },
      "deposit(bytes32,bytes)": {
        "details": "Deposit funds into the contract. The caller must send (for ETH) or approve (for ERC20) value equal to or `denomination` of this instance.",
        "params": {
          "_commitment": "the note commitment, which is PedersenHash(nullifier + secret)"
        }
      },
      "getLastRoot()": {
        "details": "Returns the last root"
      },
      "hashLeftRight(bytes32,bytes32)": {
        "details": "Hash 2 tree leaves, returns MiMC(_left, _right)"
      },
      "isKnownRoot(bytes32)": {
        "details": "Whether the root is present in the root history"
      },
      "isSpent(bytes32)": {
        "details": "whether a note is already spent "
      },
      "isSpentArray(bytes32[])": {
        "details": "whether an array of notes is already spent "
      },
      "updateVerifier(address)": {
        "details": "allow owner to update SNARK verification keys. This is needed to update keys after the final trusted setup ceremony is held. After that owner rights are supposed to be transferred to zero address"
      },
      "withdraw(bytes,bytes32,bytes32,address,address,uint256,uint256)": {
        "details": "Withdraw a deposit from the contract. `proof` is a zkSNARK proof data, and input is an array of circuit public inputs `input` array consists of: - merkle root of all deposits in the contract - hash of unique deposit nullifier to prevent double spends - the recipient of funds - optional fee that goes to the transaction sender (usually a relay)"
      }
    }
  },
  "userdoc": {
    "methods": {}
  }
}